:020000040800F2
:10000000000E0020D501000829260008B3230008AF
:1000100001250008DD0500087D350008000000000E
:10002000000000000000000000000000352C000867
:100030001108000800000000012A0008392C0008FF
:10004000EF010008EF010008EF010008EF010008D0
:10005000EF010008EF010008EF010008EF010008C0
:10006000EF010008EF010008EF010008EF010008B0
:10007000EF010008EF010008EF010008EF010008A0
:10008000EF010008EF010008EF010008EF01000890
:10009000EF010008EF010008EF0100081308000855
:1000A000EF010008D52D0008EF010008EF0100085E
:1000B000F12D0008152E0008392E0008EF01000868
:1000C000EF010008EF010008EF010008EF01000850
:1000D000EF010008EF010008F534000805350008BD
:1000E000EF010008EF010008EF010008EF01000830
:1000F000EF010008EF010008EF010008EF01000820
:10010000EF010008EF010008EF010008EF0100080F
:10011000EF010008EF010008EF010008EF010008FF
:10012000EF010008EF010008EF010008EF010008EF
:1001300000F002F800F03FF80AA090E8000C8244BA
:100140008344AAF10107DA4501D100F034F8AFF297
:10015000090EBAE80F0013F0010F18BFFB1A43F0A5
:1001600001031847CC520000EC520000103A24BFA3
:1001700078C878C1FAD8520724BF30C830C144BF0C
:1001800004680C607047000000230024002500264E
:10019000103A28BF78C1FBD8520728BF30C148BFEA
:1001A0000B607047642900F05780002070471FB52E
:1001B0001FBD10B510BD00F0E3F91146FFF7F7FFC2
:1001C00003F0A9FB00F001FA03B4FFF7F2FF03BC50
:1001D00003F0F9F90948804709480047FEE7FEE7C0
:1001E000FEE7FEE7FEE7FEE7FEE7FEE7FEE7FEE7E7
:1001F00004480549054A064B70470000E12C0008F9
:100200003101000800080020000E0020000A002034
:10021000000A0020704700000FB4044910B503AA7B
:10022000029800F093F910BC5DF814FB1000002058
:100230000FB41CB5074B06AA7B446946009005988D
:1002400000F06BF90020694600F07AF91CBC5DF8FB
:1002500014FB0000050300002DE9F04106460024D0
:1002600010687529314616A510D0AFF3008000281C
:1002700002DA404213A507E031688A0701D512A5CA
:1002800002E0490704D511A5012401E0AFF3008085
:1002900000210A2206F1240709E0B0FBF2FCB0FBC2
:1002A000F2F302FB1C00303078541846491C002839
:1002B000F3D123462A463046BDE8F04100F0CFB8DE
:1002C000000000002D0000002B00000020000000B6
:1002D0002DE9F05F894604464FF0000ADFF824B1AB
:1002E000FB44C0F820A02046E168884700287DD064
:1002F000252806D0D4E901219047206A401C2062BD
:10030000F1E700255F462046E16888472028064639
:1003100007DB312E05D2B81910F8200C08B10543BF
:10032000F1E7A80701D525F00405C4F81CA00027B3
:10033000C4F818A02A2E09D0304603F03DF938B38E
:1003400004EB8708303EC8F8186019E059F8041B20
:10035000204604EB87029161E1688847012F064639
:1003600018D1E069002820DA25F020051DE0D8F832
:10037000180000EB800006EB40003038C8F8180089
:100380002046E1688847064603F016F90028EED1BA
:10039000012F0AD02E2E08D12046E16888477F1C05
:1003A0000646022F45F02005C4DBA069002803DAC9
:1003B000404245F00105A061E80701D025F0100595
:1003C000A6B1A6F14100192802D8203645F40065EF
:1003D0004A463146204625604D46FFF7E3FE60B1B0
:1003E000012807D0ED1D25F0070000E007E000F12F
:1003F000080978E705F1040975E730467AE7206ACD
:10040000BDE8F09F395100004FF0000200B51346DF
:1004100094469646203922BFA0E80C50A0E80C5024
:10042000B1F12001BFF4F7AF090728BFA0E80C50D5
:1004300048BF0CC05DF804EB890028BF40F8042BCE
:1004400008BF704748BF20F8022B11F0804F18BF3B
:1004500000F8012B704770477047704770472DE9CF
:10046000F0470D4699469246044600F1240801687B
:10047000880604D5E06921F01001216000E0012028
:10048000A84201DD471B00E00027A1697A1902EBB1
:100490000900081AA0612078C00602D42046AFF3F4
:1004A0000080002608E0D4E901211AF806009047F0
:1004B000206A401C761C20624E45F4DB2078C00682
:1004C0000AD52046AFF3008006E0D4E901213020B0
:1004D0009047206A401C2062381EA7F10107F4DC17
:1004E00007E0D4E9012118F805009047206A401C74
:1004F0002062281EA5F10105F3DC2046AFF3008041
:100500002078000602D50220BDE8F0870120FBE735
:1005100001694A1C02610878704700B58FB0CDE9C7
:1005200001310021059105497944CDE903101146B7
:100530006846FFF7CDFE0FB000BD0000E5FFFFFFEE
:100540000A6802F8010B0A6070470000074B70B59B
:100550000D467B44FFF7E1FF0446284600F008F80B
:1005600010B14FF0FF3070BD204670BD97330000D2
:10057000007B00F08000704700487047A007002013
:100580007546FFF7F9FFAE4605006946534620F071
:100590000700854618B020B5FFF72AFEBDE82040C9
:1005A0004FF000064FF000074FF000084FF0000B2F
:1005B00021F00701AC46ACE8C009ACE8C009ACE8E2
:1005C000C009ACE8C0098D46704710B50446AFF3CA
:1005D00000802046BDE81040FFF7F6BD00BFFEE7F3
:1005E00001F066FF01F000FF02F03CF802F01DF898
:1005F0004FF4E131022003F0E1F94FF4E13103203F
:1006000003F0DCF900F00AF900F06EF900F0D4F91B
:1006100001F0BCFF03F0A2F902F07CFF1B4802F0DE
:1006200025FA1B4802F022FA1A4802F01FFA4FF08E
:1006300080401849086000204860886024E000F08D
:1006400015FA154908801548007801280BD108468D
:1006500000880A2807DC08460088022803DD0220FB
:100660000E4908700AE00D480078022806DB0A48A7
:1006700000880C2802DD01200849087000F010F8FD
:1006800002F0A4FF02F0F4F8D9E700001007002000
:1006900040070020700700204A000020480000208A
:1006A00010B55048007806287ED2DFE800F00394A9
:1006B000121D5B8000204C49886048600860022061
:1006C00002F024FA20B10120464908704749087019
:1006D00085E000204649086043498860486008601A
:1006E0000320404908707AE0424909880A396422A7
:1006F00001FB02F003F0D8FD044621463E4802F01B
:1007000080F93E490860084601683D4803F06CFCEA
:10071000044603F08DFD34490860384801683948C3
:1007200003F062FC044603F083FD2F4948604FF458
:100730004870886034498868002801DB014600E081
:1007400041422B4A12681144294A11601046006840
:10075000B0F5C86F05D90420224908700020114661
:1007600008603CE02948204908604042486023482E
:10077000006803F05DFD1C498860234988680028F3
:1007800001DB014600E04142194A12681144184A4F
:10079000116010460068B0F5C86F07D905201149EF
:1007A00008700020114600E015E0086017E04FF4E3
:1007B00096700D4948600860002088600C48016808
:1007C0000068401C0A4A1060B1F5FA7F02D9012086
:1007D0000449087003E001200249087000BF00BF0F
:1007E00010BD000048000020EC060020380000206A
:1007F0004C0000204A00002070070020500000201C
:1008000000001644000016C4F8060020E0FCFFFFBC
:10081000704710B5202000F073FA10BD00B585B008
:1008200000BF2C48C06940F001002A49C861084651
:10083000C06900F00100009000BF00BF00BF084683
:10084000806940F0040088610846806900F0040077
:10085000009000BF00BF00BF1F49486820F44070EF
:1008600040F0E06040F48070486000BF03200190D9
:10087000002002900320049001A9184800F04EFACD
:100880004FF080401649086000204860002114485D
:1008900081604FF6FF71C1600021016141618021DB
:1008A000816101200F4908600020486001208860B4
:1008B0000020C86008614861012088610020C8618B
:1008C0000862074801F071F83C21054801F0C3F8BF
:1008D00005B000BD001002400000014000080140CA
:1008E0009C050020DC05002000B585B000BF2C4829
:1008F000C06940F002002A49C8610846C06900F09A
:100900000200009000BF00BF00BF0846806940F0B1
:10091000080088610846806900F00800009000BF68
:1009200000BF00BF1F49486820F4406040F0E0600D
:1009300040F40060486000BF302001900020029029
:100940000320049001A9184800F0E8F91748184955
:100950000860002048600021154881604FF6FF7153
:10096000C160002101614161802181610120114943
:10097000086000204860012088600020C86008618D
:100980004861012088610020C8610862084801F0C0
:100990000CF83C21064801F05EF805B000BD0000EF
:1009A0000010024000000140000C01400004004023
:1009B0009C050020DC05002000B585B000BF26485E
:1009C000C06940F004002449C8610846C06900F0CD
:1009D0000400009000BF00BF00BF0846806940F0DF
:1009E000080088610846806900F00800009000BF98
:1009F00000BFC0200190002002900320049001A9B4
:100A0000164800F08BF91648164908600020486027
:100A10000021144881604FF6FF71C160002101611F
:100A200041618021816101200F49086000204860F8
:100A3000012088600020C860086148610120886149
:100A40000020C8610862074800F0AFFF3C2105485C
:100A500001F001F805B000BD00100240000C01409B
:100A6000000800409C050020DC0500202DE9F04135
:100A70000024012251022F4800F0F8FA0A2002F067
:100A800011FF00224FF400712A4800F0EFFA2A48C3
:100A900000682A49086009E0274800682749096872
:100AA000401A40F69801884200D906E04FF4807160
:100AB000204800F0D3FA0028EED000BF1E4800689E
:100AC0001E49086009E01C4800681C490968401A72
:100AD00041F29411884200D906E04FF48071154824
:100AE00000F0BCFA0128EED000BF1348006813499B
:100AF0000968884216D91048006810490968401AE8
:100B00000F4908600846006803F0E6FB07460D49F8
:100B100003F0F6FB06460C4903F0C8FA054603F05D
:100B2000A3FB0446022C02D92046BDE8F081012037
:100B3000FBE70000000C014008000020200000201E
:100B400024000020000088410000C84270B504461F
:100B5000002594F82100022803D00420A063012579
:100B6000C1E02068006820F00E002168086020685D
:100B7000006820F00100216808605C492068884214
:100B800052D95A4978392068884201D1012047E07A
:100B9000564964392068884201D1102040E0534909
:100BA00050392068884201D1801539E04F493C39DD
:100BB0002068884201D1801432E04C4928392068ED
:100BC000884202D14FF480302AE048491439206825
:100BD000884202D14FF4801022E0444920688842C4
:100BE00001D140041CE042492068884201D1012023
:100BF00016E03F4914312068884201D110200FE0EF
:100C00003B4928312068884201D1801508E03849E5
:100C10003C312068884201D1801401E04FF48030DB
:100C20003349091F086051E030497839206888420B
:100C300001D1012047E02D4964392068884201D163
:100C4000102040E0294950392068884201D18015A0
:100C500039E026493C392068884201D1801432E0CD
:100C6000224928392068884202D14FF480302AE096
:100C70001E4914392068884202D14FF4801022E0C6
:100C80001A492068884201D140041CE018492068B4
:100C9000884201D1012016E01549143120688842AC
:100CA00001D110200FE0124928312068884201D17B
:100CB000801508E00E493C312068884201D180143B
:100CC00001E04FF48030094980394860012084F800
:100CD000210000BF002084F8200000BF606B10B12D
:100CE0002046616B8847284670BD000080000240A6
:100CF0000804024010B50446022001F0B3FB10BD09
:100D000010B5044604480068204020B10248046041
:100D10002046FFF7EFFF10BD140401402DE9F8470E
:100D2000024600239C467BE14FF0010808FA03F4D9
:100D3000D1F8008008EA0400A0427DD1DFF8F4A2D7
:100D4000D1F80480A8EB0A09D0453AD014DCB8F1F8
:100D5000030F50D009DCB8F1000F31D0B8F1010F0A
:100D60001CD0B8F1020F49D120E0B8F1110F18D012
:100D7000B8F1120F42D11EE0B9F5881F25D006DC6C
:100D8000B9F5803F20D0B9F5801F37D11AE0B9F509
:100D9000001F18D0B9F5041F30D117E0D1F80CC0EE
:100DA0002DE0D1F80C8008F1040C28E0D1F80C807B
:100DB00008F1080C23E0D1F80C8008F10C0C1EE0BF
:100DC00000BF00BF00BF00BF00BF00BFD1F8088058
:100DD000B8F1000F02D14FF0040C0BE0D1F80880FD
:100DE000B8F1010F03D14FF0080C146102E04FF08D
:100DF000080C546103E04FF0000C00E000BF00BF9E
:100E0000FF2801D8904601E002F104084646FF2879
:100E100002D84FEA830803E0A3F108084FEA8808E4
:100E20004746D6F800804FF00F0909FA07F928EA7B
:100E300009080CFA07F900E07AE048EA0908C6F860
:100E40000080D1F8048008F08058B8F1805F6FD13D
:100E500000BFDFF8E481D8F8188048F00108DFF817
:100E6000D891C9F81880C846D8F8188008F0010849
:100E7000CDF8008000BF00BF4FEAB9384FEA9309B0
:100E800058F829504FEA83784FEA18794FF00F0845
:100E900008FA09F825EA0805DFF8A081424502D1E1
:100EA0004FF0000824E0DFF89881424502D14FF06E
:100EB00001081DE0DFF88C81424502D14FF00208A5
:100EC00016E0DFF88481424502D14FF003080FE0BD
:100ED000DFF87881424502D14FF0040808E0DFF8DE
:100EE0007081424502D14FF0050801E04FF006083D
:100EF0004FEA83794FEA197908FA09F848EA0505B3
:100F0000DFF850814FEA930948F82950D1F804805E
:100F100008F48038B8F5803F0BD1DFF83C81D8F871
:100F2000008048EA0008DFF83091C9F800800AE044
:100F300075E0DFF82481D8F8008028EA0008DFF89F
:100F40001891C9F80080D1F8048008F40038B8F589
:100F5000003F0ED1DFF8008108F10408D8F80080C6
:100F600048EA0008DFF8F09009F10409C9F80080A8
:100F70000DE0DFF8E48008F10408D8F8008028EAE2
:100F80000008DFF8D49009F10409C9F80080D1F80D
:100F9000048008F48018B8F5801F0ED1DFF8B880FF
:100FA00008F10808D8F8008048EA0008DFF8A8909F
:100FB00009F10809C9F800800DE0DFF89C8008F10C
:100FC0000808D8F8008028EA0008DFF88C9009F1BA
:100FD0000809C9F80080D1F8048008F40018B8F5B1
:100FE000001F0ED1DFF8708008F10C08D8F80080DF
:100FF00048EA0008DFF8609009F10C09C9F80080A0
:101000000DE0DFF8548008F10C08D8F8008028EAD9
:101010000008DFF8449009F10C09C9F800805B1C56
:10102000D1F8008028FA03F8B8F1000F7FF47CAE05
:10103000BDE8F887000011100010024000080140D0
:10104000000C014000100140001401400018014054
:10105000001C014008000140000401400246936862
:101060000B400BB1012000E0002070470AB1016184
:1010700001E00B04036170470148006870470000FD
:101080002C000020034800680349097808440149FE
:10109000086070472C0000203400002010B508487C
:1010A000006840F0100006490860052000F080F854
:1010B0000F2000F007F800F02BF8002010BD000012
:1010C0000020024070B504460E4800784FF47A7153
:1010D000B1FBF0F00C490968B1FBF0F5284600F0CF
:1010E000F7FB08B1012070BD102C07D20022214669
:1010F000501E00F01EF80548046001E00120F2E7F0
:101100000020F0E7340000202800002030000020FC
:10111000704701460846002809DB00F01F03012242
:101120009A4043099B0003F1E023C3F8002100BF6C
:1011300070472DE9F05F80460D461646002702F005
:101140001FFA074639462A46334601F00700C0F128
:10115000070ABAF1040F02D94FF0040A01E0C0F106
:10116000070AD14600F1040ABAF1070F02D24FF084
:10117000000A01E0A0F1030AD4464FF0010A0AFA7E
:1011800009FAAAF1010A0AEA020A0AFA0CFA4FF06D
:10119000010B0BFA0CFBABF1010B0BEA030B4AEA58
:1011A0000B042146404602F0F3F9BDE8F09F000031
:1011B00000BF00F00702064B19684FF6FF03194005
:1011C000044B0B4343EA0221014B196000BF7047F7
:1011D0000CED00E00000FA0570B504460D460CB9B0
:1011E000012070BD5A48006800F00700A8420ED2E6
:1011F0005748006820F00700284355490860084612
:10120000006800F00700A84201D00120E9E720783B
:1012100000F0020002281DD1207800F0040004280C
:1012200005D14C48406840F4E0604A494860207865
:1012300000F00800082805D14648406840F4605096
:10124000444948604348406820F0F000A1680843E2
:1012500040494860207800F0010078B360680128B8
:1012600006D13C48006800F4003090B90120B8E78E
:101270006068022806D13748006800F0007040B965
:101280000120AEE73348006800F0020008B90120F1
:10129000A7E73048406820F00300616808432D4903
:1012A0004860FFF7E9FE064609E0FFF7E5FE801B10
:1012B00041F28831884202D9032092E707E02548AD
:1012C000406800F00C006168B0EB810FEDD1204860
:1012D000006800F00700A8420ED91D48006820F001
:1012E000070028431A4908600846006800F0070014
:1012F000A84201D0012074E7207800F004000428FF
:1013000007D11448406820F4E060E16808431149BF
:101310004860207800F00800082808D10D4840688F
:1013200020F46050216940EAC1000A49486000F099
:101330003FF808494968C1F30311074A515CC840A6
:101340000649086006480068FFF7BCFE002048E731
:101350000020024000100240055400082800002030
:10136000300000200148006870470000280000207D
:1013700000B5FFF7F7FF04494968C1F30221034AAA
:10138000515CC84000BD0000001002401554000828
:1013900000B5FFF7E7FF04494968C1F3C221034ADA
:1013A000515CC84000BD0000001002401554000808
:1013B000F0B585B00FF26C0C9CE8E01001A8A0E835
:1013C000E0101CA52D6800950021002200230024B8
:1013D0000020194D696801F00C05F5B1042D02D00B
:1013E000082D19D101E0154819E001ADC1F383467C
:1013F000AC5D01F4803555B10F4D6D68C5F34045C6
:101400001DF805200D4D6543B5FBF2F302E00C4DD0
:1014100004FB05F3184602E000BF084800BF00BF08
:1014200005B0F0BD02030405060708090A0B0C0D00
:101430000E0F1010010200000010024000127A008E
:1014400000093D00F8B504460CB90120F8BD20782C
:1014500000F00100002878D0F848406800F00C0047
:1014600004280CD0F548406800F00C00082811D181
:10147000F248406800F48030B0F5803F0AD1EF4870
:10148000006800F4003000285FD0606800285CD15C
:101490000120DBE700BF6068B0F5803F06D1E74878
:1014A000006840F48030E549086028E0606858B979
:1014B000E248006820F48030E0490860084600688F
:1014C00020F4802008601AE06068B0F5A02F0BD1EE
:1014D000DA48006840F48020D8490860084600686F
:1014E00040F4803008600AE0D448006820F480307E
:1014F000D24908600846006820F48020086000BFD8
:10150000606888B1FFF7B8FD054606E0FFF7B4FD57
:10151000401B642801D9032098E7C848006800F4FC
:1015200000300028F2D010E0FFF7A6FD054606E0E7
:10153000FFF7A2FD401B642801D9032086E7BF48BE
:10154000006800F400300028F2D1207800F002009A
:10155000022857D1B948406800F00C0050B1B74894
:10156000406800F00C00082818D1B448406800F426
:10157000803098B9B148006800F0020020B12069BD
:10158000012801D0012061E7AC48006820F0F80094
:10159000616940EAC100A949086033E02069E8B107
:1015A0000120A7490860FFF767FD054606E0FFF741
:1015B00063FD401B022801D9032047E79F480068CC
:1015C00000F002000028F2D09C48006820F0F800EB
:1015D000616940EAC1009949086013E00020984918
:1015E0000860FFF749FD054606E0FFF745FD401B93
:1015F000022801D9032029E79048006800F0020082
:101600000028F2D1207800F0080008282DD1A06928
:10161000B8B101208B490860FFF72EFD054606E0B2
:10162000FFF72AFD401B022801D903200EE783485B
:10163000406A00F002000028F2D0012001F02AFAEE
:1016400013E000207F490860FFF716FD054606E01D
:10165000FFF712FD401B022801D90320F6E6774868
:10166000406A00F002000028F2D1207800F0040067
:10167000042873D100277148C06900F0805070B908
:1016800000BF6E48C06940F080506C49C861084690
:10169000C06900F08050009000BF00BF01276A4879
:1016A000006800F48070B0B96748006840F480704A
:1016B00065490860FFF7E0FC054606E0FFF7DCFC43
:1016C000401B642801D90320C0E65F48006800F48D
:1016D00080700028F2D000BFE068012806D157488A
:1016E000006A40F001005549086227E0E06858B9F7
:1016F0005248006A20F00100504908620846006A1A
:1017000020F00400086219E0E06805280BD14B487E
:10171000006A40F00400494908620846006A40F047
:10172000010008620AE04548006A20F001004349D0
:1017300008620846006A20F00400086200BFE06802
:10174000A0B1FFF799FC054609E0FFF795FC401BA7
:1017500041F28831884202D9032077E622E03748F7
:10176000006A00F002000028EFD012E0FFF784FCCE
:10177000054608E0FFF780FC401B41F288318842B3
:1017800001D9032062E62D48006A00F0020000281B
:10179000F0D1012F05D12948C06920F08050274998
:1017A000C86100BFE069C8B32448406800F00C007D
:1017B000082860D0E069022848D100202049086646
:1017C000FFF75AFC054606E0FFF756FC401B0228CF
:1017D00001D903203AE61948006800F0007000289B
:1017E000F2D1206AB0F5803F07D11448406820F458
:1017F0000030A168084311494860D4E90801084352
:101800000E49496821F4741108430C4948600120CD
:101810000B490866FFF730FC054607E03DE0FFF79F
:101820002BFC401B022801D903200FE60348006867
:1018300000F000700028F2D02FE0000000100240FD
:1018400000004242800442420070004000201449DF
:101850000866FFF711FC054606E0FFF70DFC401B8C
:10186000022801D90320F1E50E48006800F000705D
:101870000028F2D111E0E069012800D1E6E509482D
:10188000466806F48031206A814204D106F4701162
:10189000606A814201D00120D8E50020D6E5000031
:1018A0000000424200100240042808D14FF0E0211D
:1018B000096941F004014FF0E022116107E04FF0A7
:1018C000E021096921F004014FF0E0221161704725
:1018D00070B504462546681EB0F1807F01D3012013
:1018E0000FE0681E4FF0E02148610F214FF0FF30FC
:1018F00001F04EFE00204FF0E021886107200861D2
:10190000002070BD7047704710B504460CB9012027
:1019100010BD94F83D0028B9002084F83C00204612
:1019200000F00CF8022084F83D00211D206801F031
:101930008FFA012084F83D000020E9E738B504461D
:101940000D492068884215D100BF0C48806940F4D9
:1019500000600A4988610846806900F400600090D0
:1019600000BF00BF002201211920FFF7E2FB192070
:10197000FFF7CFFB38BD0000002C014000100240F3
:1019800001460868C06840F001000B68D86008682C
:10199000806800F00702062A05D00868006840F059
:1019A00001000B681860002070472DE9F0410446E3
:1019B0000D4614B90120BDE8F08194F83D0028B926
:1019C000002084F83C00204600F044F8022084F80F
:1019D0003D002068806844F20701884321688860E0
:1019E000211D206801F034FA2068D0F808802068B2
:1019F00086692068076A286840EA080840F20330D0
:101A00008643A969A86840EA0120064340F60C40D5
:101A100086434FF2F0008643E969E86840EA012016
:101A2000064328690001296A40EA0130064327F08D
:101A300022076969686840EA011007432068C0F816
:101A400008802068866120680762012084F83D00D4
:101A50000020B0E7704730B504460D4615B1042D9F
:101A60000CD105E001220021206801F03FFA10E0CE
:101A700001220421206801F039FA0AE00122002144
:101A8000206801F033FA01220421206801F02EFAC7
:101A900000BF00BF2068006840F0010021680860B6
:101AA000002030BD70472DE9F04104460D46164632
:101AB00000BF94F83C00012802D10220BDE8F0816B
:101AC000012084F83C0000BF022084F83D0096B954
:101AD000EB68D5E90012206801F0F6FA2068806909
:101AE00020F00C002168886120688069A96808439B
:101AF000216888613DE0042E13D1EB68D5E900121E
:101B0000206801F01FFB2068806920F44060216894
:101B1000886120688069A96840EA0120216888619D
:101B200027E0082E12D1EB68D5E90012206801F0F9
:101B300026FB2068C06920F00C002168C86120687D
:101B4000C069A96808432168C86112E0EB68D5E95B
:101B50000012206801F02FFB2068C06920F440606B
:101B60002168C8612068C069A96840EA012021682D
:101B7000C861012084F83D0000BF002084F83C00CB
:101B800000BF00BF9AE710B5044620680069C0F3A3
:101B90004000D8B12068C068C0F34000B0B16FF019
:101BA000020021680861012020772068806900F028
:101BB000030018B12046FFF775FF05E0204600F04E
:101BC000ADF8204600F04AF900202077206800692F
:101BD000C0F38000D8B12068C068C0F38000B0B105
:101BE0006FF0040021680861022020772068806976
:101BF00000F4407018B12046FFF754FF05E020467E
:101C000000F08CF8204600F029F9002020772068A9
:101C10000069C0F3C000D8B12068C068C0F3C0003C
:101C2000B0B16FF0080021680861042020772068B7
:101C3000C06900F0030018B12046FFF733FF05E04C
:101C4000204600F06BF8204600F008F900202077CD
:101C500020680069C0F30010D8B12068C068C0F3E4
:101C60000010B0B16FF010002168086108202077E3
:101C70002068C06900F4407018B12046FFF712FFD9
:101C800005E0204600F04AF8204600F0E7F8002082
:101C900020772068006900F0010058B12068C06812
:101CA00000F0010030B16FF00100216808612046AA
:101CB00000F054F920680069C0F3C01058B12068E2
:101CC000C068C0F3C01030B16FF0800021680861B7
:101CD0002046FFF717FE20680069C0F3801058B156
:101CE0002068C068C0F3801030B16FF040002168F8
:101CF0000861204600F033F920680069C0F3401005
:101D000058B12068C068C0F3401030B16FF02000B7
:101D1000216808612046FFF7F6FD10BD704770B5D9
:101D200004460D46164600BF94F83C00012801D138
:101D3000022070BD012084F83C0000BF022084F81E
:101D40003D0036B1042E1BD0082E31D00C2E5ED1B2
:101D500045E02946206801F0DBF82068806940F002
:101D60000800216888612068806920F004002168EB
:101D7000886120688069296908432168886147E093
:101D80002946206801F0FCF82068806940F4006072
:101D9000216888612068806920F4806021688861FA
:101DA00020688069296940EA0120216888612FE064
:101DB0002946206801F022F92068C06940F0080037
:101DC0002168C8612068C06920F004002168C861EA
:101DD0002068C069296908432168C86118E029465C
:101DE000206801F047F92068C06940F4006021686C
:101DF000C8612068C06920F480602168C8612068DB
:101E0000C069296940EA01202168C86100E000BF7B
:101E100000BF012084F83D0000BF002084F83C0092
:101E200000BF00BF85E710B504460CB9012010BD06
:101E300094F83D0028B9002084F83C00204600F0CA
:101E40000CF8022084F83D00211D206801F000F804
:101E5000012084F83D000020E9E77047704700004A
:101E600070B504460E4601223146206801F03EF866
:101E70000F492068884203D00E492068884201D16A
:101E8000012000E0002028B12068406C40F40040B0
:101E9000216848642068806800F00705062D05D099
:101EA0002068006840F0010021680860002070BDD3
:101EB000002C01400034014070B504460D4635B198
:101EC000042D0BD0082D10D00C2D1CD114E020684F
:101ED000C06840F002002168C86015E02068C06852
:101EE00040F004002168C8600EE02068C06840F03F
:101EF00008002168C86007E02068C06840F0100052
:101F00002168C86000E000BF00BF012229462068A8
:101F100000F0ECFF0F492068884203D00E4920688A
:101F2000884201D1012000E0002028B12068406CE7
:101F300040F40040216848642068806800F007068B
:101F4000062E05D02068006840F001002168086076
:101F5000002070BD002C01400034014070477047E4
:101F6000704700002DE9F0470446206805682068A6
:101F7000C668206847694FF00008C14605F00F08A1
:101F8000B8F1000F0AD105F0200038B106F02000AA
:101F900020B1204601F057F9BDE8F087B8F1000FF5
:101FA0006DD007F0010018B906F49070002866D0D3
:101FB00005F0010030B106F4807018B1E06B40F01C
:101FC0000100E06305F0040030B107F0010018B132
:101FD000E06B40F00200E06305F0020030B107F072
:101FE000010018B1E06B40F00400E06305F0080068
:101FF00030B107F0010018B1E06B40F00800E06379
:10200000E06B68B305F0200028B106F0200010B1A5
:10201000204601F018F920684069C0F38019E06B90
:1020200000F0080010B9B9F1000F22D0204601F0ED
:10203000EAF82068406900F04000B0B120684069CB
:1020400020F0400021684861606B50B11748616B17
:102050004863606BFEF77AFD10B1606B416B884797
:102060000CE02046FFF77CFF08E02046FFF778FFF2
:1020700004E02046FFF774FF0020E0638CE705F0E2
:10208000800030B106F0800018B1204601F0FEF962
:1020900082E705F0400030B106F0400018B120465C
:1020A00001F0C1F878E700BF76E70000F3310008DF
:1020B00010B504460CB9012010BDA06900B100E0C4
:1020C00000BF94F8390028B9002084F83800204671
:1020D00000F028F8242084F839002068C06820F433
:1020E00000502168C860204601F000F920680069AE
:1020F00020F49040216808612068406920F02A009F
:10210000216848612068C06840F400502168C860B8
:102110000020E063202084F8390084F83A00002091
:10212000CAE7000010B586B00446494920688842D5
:1021300043D100BF4748806940F0040045498861A9
:102140000846806900F00400019000BF00BF00BF96
:102150000846C06940F40030C8610846C06900F410
:102160000030019000BF00BF00BF0846806940F00A
:10217000010088610846806900F00100019000BFFD
:1021800000BF04200290022003900120049003204D
:10219000059002A93048FEF7C1FD082002900020FA
:1021A000039002A92C48FEF7B9FD2620FEF7B1FFE7
:1021B000032211462620FEF7BCFF284920688842EA
:1021C00044D100BF2348806940F00800214988615C
:1021D0000846806900F00800019000BF00BF00BF02
:1021E0000846C06940F48020C8610846C06900F410
:1021F0008020019000BF00BF00BF0846806940F00A
:10220000010088610846806900F00100019000BF6C
:1022100000BF0815029002200390012004900320C3
:10222000059002A90E48FEF779FD4FF40060029078
:102230000020039002A90A48FEF770FD2720FEF750
:1022400068FF022203212720FEF773FF06B010BDAE
:1022500000440040001002400008014000480040D7
:10226000000C014010B5034693F83A0020282FD106
:1022700001B10AB9012010BD00BF93F83800012850
:1022800001D10220F7E7012083F8380000BF9962EE
:102290009A85DA850020D863222083F83A0000BFAF
:1022A000002083F8380000BF1868C06840F48070D0
:1022B0001C68E0601868406940F001001C686061BB
:1022C0001868C06840F020001C68E0600020D2E779
:1022D0000220D0E710B5044627492068884222D161
:1022E000012226492648FFF7BDFFC8B923480078D8
:1022F0000A280AD100202349234A128888542249F7
:1023000008800120214908700DE01C4801781E4812
:1023100002880088401C1C4B18801A48815402E037
:102320001BA0FDF779FF1E492068884222D10122B7
:1023300012491C48FFF796FFC8B9104800780A28D0
:102340000AD100200F49184A12888854164908807B
:102350000120164908700DE00848017812480288EB
:102360000088401C104B18800648815402E008A0E9
:10237000FDF752FF10BD0000004400401600002091
:102380001C0100209C010020180000201C000020DF
:1023900072656365697665206661696C640A000030
:1023A000004800405C0100201A0000201D000020B1
:1023B000704700BFFEE7000001464906084A9269DF
:1023C00042F00102064B9A61064A526822F0E0622E
:1023D000044B5A601A4652680A435A60704700001C
:1023E000001002400000014000B585B000BF1A484F
:1023F000806940F00400184988610846806900F04F
:102400000400009000BF00BF00BF0846806940F094
:10241000080088610846806900F00800009000BF4D
:1024200000BF4FF4C05001900020029002200390A2
:102430000320049001A90948FEF770FC07200190D1
:1024400000200290022003900320049001A9044878
:10245000FEF764FC05B000BD00100240000801401A
:10246000000C014070B5044634B900224FF400411D
:102470000E48FEF7FBFD18E0012C05D10122D10327
:102480000A48FEF7F3FD10E0022C0ED1A103074825
:10249000FEF7E4FD08B9012000E0002005462A46C9
:1024A0004FF400410148FEF7E1FD70BD000C014012
:1024B00000B585B000BF1048806940F008000E49A3
:1024C00088610846806900F00800009000BF00BFE6
:1024D0004FF40040019001200290039003200490EB
:1024E00001A90648FEF71AFC00224FF400410348F8
:1024F000FEF7BCFD05B000BD00100240000C01401D
:1025000000BFFEE770B506460C461546002E07DDF7
:102510001C480660002281141B48FEF7A7FD07E057
:10252000704218490860012289141748FEF79EFD81
:10253000002C08DD1348001D0460002241141248DD
:10254000FEF794FD08E060420E49091D0860012273
:1025500049140D48FEF78AFD002D09DD09480830B1
:10256000056000224FF480410748FEF77FFD08E038
:102570006842044908310860012291030248FEF7CD
:1025800075FD70BD342C0140000C014000B585B0D4
:1025900000BF2248806940F40060204988610846F5
:1025A000806900F40060009000BF00BF00BF0846D3
:1025B000806940F0040088610846806900F00400EA
:1025C000009000BF00BF00BF0846806940F00800CF
:1025D00088610846806900F00800009000BF00BFD5
:1025E0004FF4E0600190022002900320049001A9C2
:1025F0000B48FEF793FB4FF4E0400190012002905E
:102600000320049001A90748FEF788FB002141F64A
:102610001F4000F091FB05B000BD0000001002401B
:1026200000080140000C0140704770B5002415E01F
:1026300004F1B001C8B200F06FF9012000F06CF9AC
:10264000102000F069F9002504E0002000F09EF958
:10265000681CC5B2842DF8DB601CC4B2082CE7DB13
:1026600070BD000000B585B000BF4E48806940F0E5
:1026700010004C4988610846806900F01000009005
:1026800000BF00BF00BF0846806940F004008861B9
:102690000846806900F00400009000BF00BF4FF4BE
:1026A00060400190012002900320049001A93E485F
:1026B000FEF734FB0120019002900320049001A951
:1026C0003A48FEF72BFB0122D1033748FEF7CEFC38
:1026D00000224FF400513448FEF7C8FC322001F0CC
:1026E000D5F8012251033048FEF7C0FCAE2000F0BF
:1026F00013F9002000F010F9102000F00DF940202F
:1027000000F00AF9812000F007F9CF2000F004F969
:10271000A12000F001F9C82000F0FEF8A62000F08A
:10272000FBF8A82000F0F8F83F2000F0F5F8D320DF
:1027300000F0F2F8002000F0EFF8D52000F0ECF8FF
:10274000802000F0E9F8D92000F0E6F8F12000F050
:10275000E3F8DA2000F0E0F8122000F0DDF8DB20EA
:1027600000F0DAF8402000F0D7F8202000F0D4F88C
:10277000022000F0D1F88D2000F0CEF8142000F0F7
:10278000CBF8A42000F0C8F8A62000F0C5F8AF20D0
:1027900000F0C2F8FFF749FF0021084600F03AF8C0
:1027A00005B000BD001002400010014000080140CB
:1027B0002DE9F0470446884615464FF000090026EB
:1027C000002720E0E85D203800F0FF097E2C04DDC2
:1027D000002408F1010000F0FF084146204600F007
:1027E00019F8002609E009EB4901094A02EB410109
:1027F000885D00F0CBF8701CC6B2062EF3DBA01D7E
:10280000C4B2781CC7B2E85D0028DBD1BDE8F08710
:102810008245000870B504460D4605F1B001C8B206
:1028200000F07AF8102141EA141000F075F804F075
:102830000F0000F071F870BD70B50026002411E0A3
:1028400021461020FFF7E6FF0E2507E03146761CF3
:10285000064A505C00F09AF8681CC5B2762DF5DB8C
:10286000601CC4B2082CEBDB70BD0000C550000832
:1028700000B591B0174803881748027817A101A83E
:10288000FDF7D6FC01AA02210020FFF791FF1848AE
:10289000806800901648436816A1026801A8FDF7F9
:1028A000C7FC01AA03210020FFF782FF15488068BA
:1028B00000901448436814A1026801A8FDF7B8FC11
:1028C00001AA04210020FFF773FF642000F0DEFF5F
:1028D00011B000BD4A00002048000020537461740C
:1028E000653A2564204469733A2564636D000000ED
:1028F000F8060020454E433A25647C25647C256417
:1029000000000000EC0600205461723A25647C252A
:10291000647C25640000000070B504460825002290
:1029200001211848FEF7A2FB002229031648FEF7F2
:102930009DFB012000F0E8FF1EE004F0800028B1BC
:10294000012291031048FEF791FB05E000224FF4AD
:1029500080410D48FEF78AFB0122D1030A48FEF7A9
:1029600085FB012000F0D0FF00224FF40041064813
:10297000FEF77CFB6006040E281EA5F10101CDB216
:10298000DBD170BD000801400010014070B5044665
:102990000825012211461848FEF768FB002229038A
:1029A0001648FEF763FB012000F0AEFF1EE004F0C6
:1029B000800028B1012291031048FEF757FB05E083
:1029C00000224FF480410D48FEF750FB0122D10355
:1029D0000A48FEF74BFB012000F096FF00224FF45F
:1029E00000410648FEF742FB6006040E281EA5F1D2
:1029F0000101CDB2DBD170BD0008014000100140E3
:102A000070472DE9F04104460D462846616A01F001
:102A100043FD0646216801F073FC20612946606889
:102A200001F06EFC60612846616A01F035FD0746E1
:102A3000A16A01F031FD0646A16801F061FCA061C8
:102A40002846616A01F028FDA0626562D4E90401AC
:102A500001F0CAFA0746A16901F0C6FA0646E16923
:102A600001F0C2FAE061E069BDE8F0810749016068
:102A70000749416000218160C1600161416181615C
:102A8000C161016241628162C1627047CDCC644123
:102A90009A99294108B508490968C9084FF47A721A
:102AA000B1FBF2F14143009100BF00BF00994A1E03
:102AB00000920029F9D108BD280000200246022A10
:102AC00004D0032A0BD0042A17D10FE04FF0804026
:102AD000406A01B200204FF0804358620FE009487D
:102AE000006801B20020074B186008E00648006843
:102AF00001B20020044B186001E0002100BF00BFBC
:102B000048427047240400402408004010B50446A1
:102B1000062C58D2DFE804F0570313233345012174
:102B20002A48FEF79BFA48B90A2000F0AFFE0121BF
:102B30002648FEF793FA08B9012010BD43E00221B0
:102B40002248FEF78BFA48B90A2000F09FFE0221C6
:102B50001E48FEF783FA08B90120EEE733E00421AE
:102B60001A48FEF77BFA48B90A2000F08FFE0421CC
:102B70001648FEF773FA08B90120DEE723E04FF4A8
:102B800000611348FEF76AFA50B90A2000F07EFE91
:102B90004FF400610E48FEF761FA08B90120CCE756
:102BA00011E04FF480510A48FEF758FA50B90A2054
:102BB00000F06CFE4FF480510548FEF74FFA08B95B
:102BC0000120BAE700BF00BF0020B6E7000C0140BB
:102BD0000008014010B5044634B1012C0CD0022C81
:102BE00012D0032C20D117E010211148FEF736FA3D
:102BF00008B9012010BD17E080210D48FEF72EFA1C
:102C000008B90120F6E70FE040210948FEF726FA4F
:102C100008B90120EEE707E020210548FEF71EFA7B
:102C200008B90120E6E700BF00BF0020E2E700008E
:102C3000000801407047000010B5FEF723FA0C4869
:102C40000088401C80B20A490880322803DD002039
:102C50000880FDF725FD07480068401C054908600D
:102C6000642803D10020086000F0B0FC10BD000013
:102C7000040000200000002000B58FB0282105A826
:102C8000FDF7C2FB14216846FDF7BEFB012005904D
:102C900000040690002007900120099002200C906B
:102CA000C1030D914FF4E0110E9105A8FEF7CAFB88
:102CB00008B100BFFEE70F20009002200190002025
:102CC00002904FF480600390002004900221684637
:102CD000FEF782FA08B100BFFEE70FB000BD0000AA
:102CE0001148006840F001000F490860084640683C
:102CF0000E4908400C494860084600680C490840E5
:102D0000094908600846006820F4802008600846E9
:102D1000406820F4FE0048604FF41F008860C8033C
:102D20000449086070470000001002400000FFF8EE
:102D3000FFFFF6FE08ED00E070B505460C462148A1
:102D4000214908600846446000218160C560016136
:102D5000FEF7DAFD1C48FFF766F81B48FEF710FE89
:102D600060201A49086000204860886000221648E8
:102D7000FEF7D5FF042215491348FEF7D0FF0822BD
:102D800012491148FEF7CBFF00210F48FFF768F802
:102D900004210D48FFF764F808210B48FFF760F89D
:102DA00000210948FFF788F8002009490860012040
:102DB000486000208860C8600C220348FEF773FE5C
:102DC00070BD0000002C01400006002040060020DD
:102DD0005C06002010B50448FEF7D5FE03480068E5
:102DE0000A300249086010BD0006002008000020DB
:102DF00010B50748FEF7C7FE4FF0804000694FF05E
:102E00008040006920F001004FF08041086110BD52
:102E10006C06002010B50648FEF7B5FE05480068B0
:102E20000448006820F001000249086010BD00005D
:102E3000AC06002010040040044800680348006805
:102E400020F00100014908607047000010080040B0
:102E500010B50268204B98420ED0204B98420BD000
:102E6000B0F1804F08D01E4B984205D01D4B9842C0
:102E700002D01D4B984203D122F070024B681A43D6
:102E8000154B98420ED0154B98420BD0B0F1804FA5
:102E900008D0134B984205D0124B984202D0124BE7
:102EA000984203D122F44072CB681A4322F0800387
:102EB0004C6943EA040202608B68C3620B68836258
:102EC000054B984202D0054B984201D10B69036330
:102ED0000123436110BD0000002C0140003401407B
:102EE0000004004000080040000C004030B501F034
:102EF0001F05012404FA05F3046A9C430462046A72
:102F000001F01F0502FA05F52C43046230BD0000F4
:102F100030B5056A25F001050562026A43688469D7
:102F200024F0700424F003040D682C4322F0020204
:102F30008D682A43104DA84200D103E00F4DA842EE
:102F400006D100BF22F00802CD682A4322F0040215
:102F5000094DA84202D0094DA84207D123F480733D
:102F600023F400734D692B438D692B4343608461C7
:102F70004D684563026230BD002C014000340140C1
:102F800030B5056A25F010050562026A4368846958
:102F900024F4E04424F440740D6844EA052422F04B
:102FA00020028D6842EA0512124DA84200D103E0CA
:102FB000114DA84207D100BF22F08002CD6842EA3D
:102FC000051222F040020B4DA84202D00A4DA84241
:102FD00009D123F4806323F400634D6943EA850338
:102FE0008D6943EA8503436084614D6885630262AD
:102FF00030BD0000002C01400034014030B5056AAE
:1030000025F480750562026A4368C46924F070047F
:1030100024F003040D682C4322F400728D6842EA08
:103020000522124DA84200D103E0114DA84207D15C
:1030300000BF22F40062CD6842EA052222F48062D9
:103040000A4DA84202D00A4DA84209D123F4805368
:1030500023F400534D6943EA05138D6943EA0513D0
:103060004360C4614D68C563026230BD002C0140FD
:103070000034014030B5056A25F480550562036AC5
:103080004468C26922F4E04222F440720D6842EAC8
:10309000052223F400538D6843EA0533084DA84206
:1030A00002D0084DA84204D124F480444D6944EA7A
:1030B00085144460C2614D680564036230BD000040
:1030C000002C01400034014070B50C461546066ADC
:1030D00026F0010606628169026A154EB0420ED0E2
:1030E000144EB0420BD0B0F1804F08D0124EB04217
:1030F00005D0124EB04202D0114EB04201D101268D
:1031000000E000261EB121F00301294301E041F057
:10311000010121F0F001F02606EA0316314322F006
:103120000A0204F00A0632438161026270BD0000A7
:10313000002C014000340140000400400008004021
:10314000000C004070B50C461546066A26F01006C5
:1031500006628169026A21F4407141EA052121F485
:1031600070414FF4704606EA0336314322F0A00264
:10317000A02606EA041632438161026270BD70B572
:103180000C461546066A26F480760662C169026A14
:1031900021F00301294321F0F001F02606EA03168D
:1031A000314322F400724FF4007606EA04263243DB
:1031B000C161026270BD70B50C461546066A26F400
:1031C00080560662C169026A21F4407141EA052114
:1031D00021F470414FF4704606EA0336314322F47D
:1031E00000524FF4005606EA04363243C1610262CF
:1031F00070BD70B505466C6A0020E085E08420460D
:10320000FEF7AEFE70BD0168C96821F490710268D6
:10321000D1600168496921F00101026851612021F2
:1032200080F83A10704710B504462068C06820F056
:1032300040002168C860202084F839002046FFF74C
:10324000B7F8002010BD70B5044694F83A00222863
:103250004AD1A068B0F5805F13D1A56A206940B952
:1032600020684068C0F308002880A06A801CA06223
:1032700019E020684068C0B22880A06A401CA062A3
:1032800011E0206938B920684068C1B2A26A501CB8
:10329000A062117007E02068406800F07F01A26A18
:1032A000501CA0621170E08D401E80B2E085C8B94C
:1032B0002068C06820F020002168C8602068C068CD
:1032C00020F480702168C8602068406920F0010007
:1032D00021684861202084F83A002046FEF7FAFF72
:1032E000002070BD0020FCE70220FAE770B504461C
:1032F0002168096921F44051E26811432268116193
:103300002269A1681143626941EA02052168C9681E
:1033100041F20C62914329432268D16021684969D6
:1033200021F44071A269114322685161564A216813
:10333000914254D1FEF72CF800EBC00101EB0011D3
:1033400062689200B1FBF2F100EBC00202EB0012E6
:1033500063689B00B2FBF3F26423B2FBF3F202EB6F
:10336000C20303EB0212A1EB8201322202EB011134
:103370006422B1FBF2F101F0F00100EBC00202EBBC
:10338000001263689B00B2FBF3F26423B2FBF3F21A
:1033900001EB021200EBC00101EB001163689B001E
:1033A000B1FBF3F100EBC00303EB00136668B6005A
:1033B000B3FBF6F36426B3FBF6F303EBC30606EBAD
:1033C0000313A1EB8301322303EB01116423B1FB4F
:1033D000F3F101F00F0111442268916053E0FDF711
:1033E000C7FF00EBC00101EB001162689200B1FB66
:1033F000F2F100EBC00202EB001263689B00B2FB2B
:10340000F3F26423B2FBF3F202EBC20303EB02120A
:10341000A1EB8201322202EB01116422B1FBF2F135
:1034200001F0F00100EBC00202EB001263689B00A8
:10343000B2FBF3F26423B2FBF3F201EB021200EBF6
:10344000C00101EB001163689B00B1FBF3F100EBDD
:10345000C00303EB00136668B600B3FBF6F3642603
:10346000B3FBF6F303EBC30606EB0313A1EB8301F7
:10347000322303EB01116423B1FBF3F101F00F01DF
:1034800011442268916070BD00380140014691F8F6
:10349000390021282CD18868B0F5805F0FD10A6AE5
:1034A0001088C0F308000B685860086918B9086AEA
:1034B000801C086209E0086A401C086205E00B6A8B
:1034C000581C086218780B685860C88C401E80B27F
:1034D000C88458B90868C06820F080000B68D860BC
:1034E0000868C06840F040000B68D8600020704752
:1034F0000220FCE710B50248FEF734FD10BD0000C5
:103500001C01002010B50248FEF72CFD10BD000084
:103510005C01002000B585B000BF1648806940F00E
:103520000800144988610846806900F0080000908E
:1035300000BF00BF481501900120029003900320B6
:10354000049001A90C48FDF7E9FB4FF4807001904D
:1035500000200290022003900320049001A9064855
:10356000FDF7DCFB00224FF400710348FDF77EFD00
:1035700005B000BD00100240000C014000BFFEE796
:1035800002480068C0F30220704700000CED00E024
:1035900010B5002804DB0A07130E054A135406E091
:1035A0000A07140E034A00F00F031B1FD45410BD6A
:1035B00000E400E018ED00E030380A2801D20120D4
:1035C00070470020704700BF704700002DE9FF5F83
:1035D0000120FFF7FFFA40B2994908700320FFF776
:1035E000F9FA40B2964948700220FFF7F3FA40B268
:1035F000934988700020FFF7EDFA40B29049C870F7
:103600009048007801287DD191F90310480000F01E
:10361000EBFA04460D468A4991F9020000F0E4FAFB
:1036200080464FF03332884B00F0F6FA06462246C9
:103630002B4600F031FA82468B46814991F9010010
:1036400000F0D2FA06464FF033327F4B00F0E4FA36
:1036500004460D467A4991F90010480000F0C4FA7A
:10366000804622462B4600F017FA52465B46CDE9CB
:10367000000100F0CFFBCDE9020100F0DBF9734956
:1036800008600846006800F0D3FD041E01DB2046F8
:1036900000E06042022802DD4FF4167001E04FF4B2
:1036A00048706B4908606648007850B164484078BB
:1036B00038B16348807820B16148C07808B1654866
:1036C000086065496148006800F01AFE05466048D8
:1036D000006800F0E9FD0646294600F085FC044636
:1036E00000F0A6FD5D4908605B495848006800F09D
:1036F00007FE054656480068404200F0D5FD0646E4
:10370000294600E010E000F06FFC044600F090FD58
:103710005249486052494D48006800F0F1FD0446A6
:1037200000F086FD4D4988604C4909684D4A126891
:10373000881A00F0B9FD054629464B48FFF761F9A4
:10374000044600F075FD4949086044494968454A06
:103750005268881A00F0A8FD054629464448FFF73C
:1037600050F9044600F064FD404948603B498968CF
:103770003C4A9268881A00F097FD054629463D4864
:10378000FFF73FF9044600F053FD384988600846CA
:10379000006810F57A7F02DA2E48C83809E033480D
:1037A0000068B0F57A7F02DD4FF47A7001E02F48AF
:1037B00000682E4908600846406810F57A7F02DAF2
:1037C0002448C83809E029484068B0F57A7F02DD0E
:1037D0004FF47A7001E02548406824494860084663
:1037E000806810F57A7F02DA1A48C83809E01F4865
:1037F0008068B0F57A7F02DD4FF47A7001E01B48F3
:1038000080681A4988600B461B881AB20B461B89D0
:1038100019B2164B9B8818B2FEF774FE0420FFF70E
:103820004DF9104908600220FFF748F90D4948603A
:103830000320FFF743F90B498860BDE8FF9F0000B4
:1038400044000020480000203333F33F3C000020B8
:1038500040000020E0FCFFFF00008C43EC0600204D
:1038600000009643F80600201007002004070020FF
:10387000400700207007002010B504460420FEF722
:1038800013F80148046010BD0C00002030B5044658
:10389000002504E04FF47A7000F004F86D1CA54296
:1038A000F8D330BD70B5034600224FF0E0267569AD
:1038B0000D4E366803FB06F44FF0E026B16910E0C8
:1038C0004FF0E026B06988420BD0884202D20E1A2F
:1038D000324402E02E1A0E4432440146A24200D382
:1038E00000E0EDE700BF70BD0C00002000BF054AFE
:1038F000126802F04002002AF9D0C2B2014B1B1D2F
:103900001A6070470044004000E000BF011EA0F1B3
:103910000100FAD17047FDF7C1FBFFF7ADF9482070
:10392000FFF7AAFF0120FEF747FDFEF7C1FDFEF7F6
:1039300099FEFEF781FF4FF4FA70FFF7A7FFFEF73D
:1039400074FEFCF74DFE07E0FEF776FF0220FEF75F
:1039500089FDC820FFF79AFFF6E7000000B585B0A3
:1039600000BF1448806940F004001249886108468D
:10397000806900F00400009000BF00BF00BF08464F
:10398000806940F0080088610846806900F00800FE
:10399000009000BF00BFF0200190002002900220A4
:1039A00003900320049001A90348FDF7B7F905B07F
:1039B00000BD0000001002400008014070B505463F
:1039C0000C46022D02D0032D28D113E014481549CE
:1039D00008600846446000218160C1600161816126
:1039E0000C214161FEF764FB01220F490D48FEF7EF
:1039F00039FC00BF0D480E490860084644600021AC
:103A00008160C160016181610C214161FEF750FB61
:103A1000012205490648FEF725FC00BF00BF70BD26
:103A2000004400401C010020160000200048004017
:103A30005C01002021F00042A2F16052B2F5801F2B
:103A400001F0004328BFD2F17F6C0BD95FEA001C64
:103A500043EAC20242EB507018BF704728BF20F003
:103A600001007047B2F5801FBCBF184670474FEA8F
:103A7000410C1CF5001F02D2084600F008BD70B5CD
:103A800000F074F900000089FFF7F6BF4FF0004026
:103A9000A0F580007047000010B591EA030F48BF01
:103AA00083F0004300F1BE81841A71EB030C05D250
:103AB000121943EB0C03001B61EB0C01DFF824E14E
:103AC0004FEA1154A4EB135C1EEA430F18BF9EEAA1
:103AD000445F73D023EA0E03DCF1200E21EA045187
:103AE00043F4801332D322FA0CFE10EB0E0023FABB
:103AF0000CFE41EB0E01CCF1200E03FA0EFE10EB92
:103B00000E0051F10001B1F5801FCCF1200E32D230
:103B100001EB045112FA0EF2BDE8104058BF704795
:103B2000401C38BF5FEA420218BF7047002814BF2C
:103B300020F0010041F100014FEA410313F5001F9D
:103B400038BF7047A1F1C04100F05EB9012A43EBD4
:103B50000302ACF1200CDCF11F0E32BF4FF0000E5F
:103B600023FA0CF310EB030041EB0451B4EB115FAB
:103B7000D0D0A1EB045101F5801149085FEA300073
:103B800001EB04510ED350F1000038BF12FA0EFEC3
:103B900008D1BDE81040C9E7401C38BF5FEA4202C7
:103BA000CAD1C3E7BDE810404FEA410313F5001F37
:103BB00038BF7047A1F1C04100F026B99EEA445FCA
:103BC00008D011EA5E0FBDE8104004BF01F00041CB
:103BD00000207047BDE8104070B500F0C7F800BF86
:103BE00064FBBE3E0000E0FF10F0004248BF4042D0
:103BF000B0FA80F310FA03F10AD0C3F11D0303F504
:103C000080634FEA415002EB035202EBD12170472F
:103C10004FF0000070470000DFF848C170B51CEAA3
:103C2000111E1EBF1CEA13159EEA0C0F95EA0C0F1D
:103C300000F06F8081EA030423EA4C134EEAD47E3D
:103C400021EA4C1141F4801143F48013AE44A1FBEE
:103C5000024CA0FB0365AEF17F7E361955EB0C05D7
:103C6000A1FB034C4CF10003A0FB021C16EB0C065D
:103C7000654153F10003094218BF46F0010613F4F1
:103C8000007F0BD14FEA03314FEA0530340341EA9C
:103C9000155140EA16506FF003020AE04FEAC321C3
:103CA0004FEAC520F40241EA555140EA56506FF000
:103CB000020202EB2E4201EB025585EACE710AD0D8
:103CC0005FEA440C18BF24F0004450F1000041F1B9
:103CD000000120EAD47040F2FE7C624500D270BD43
:103CE000A84214BF4FF080444FF04044002E08BF5C
:103CF0000024BEF1806FA8BFA1F1C041BDE87040B3
:103D000080F282804FF0000001F1C04101F00041DB
:103D100070479EEA0C0F0CEA131518BF95EA0C0FBA
:103D200006D04FF0000081EA030E0EF0004170BD96
:103D300000F01CF88900013E00F007B800F009B857
:103D40004FEA430C5FEA5C5C08D081EA030100F0B3
:103D50005BB84FEA410C5FEA5C5CF6D14FF00000C3
:103D6000014970470000FF070000F87F0EF1020EC6
:103D70002EF0030E5EF8046B364205D4012A43EBA5
:103D8000030515F5001F12D8012841EB010C1CF5A5
:103D9000001F0CD80ED14FEAD17C15F5001F0CEB9B
:103DA0004C0C0CF1020C08BF4CEBD37C04E04FF040
:103DB000080C01E04FEAD37C0CEB4C0526FA05F623
:103DC00006F00706B6F1040C06D20EEB860CBDE831
:103DD00070404CF0010C6047DFE80CF0090B020268
:103DE0004FF000414FF00000A1F5002170BD1946D1
:103DF0001046012851EB010418BFD4F5001484BF0C
:103E0000002001F0004170BD0808A0F500114FEA44
:103E10003101704710B591EA030F48BF83F00043AA
:103E20003FF542AE841A71EB030C07D212198CF0E5
:103E3000004C43EB0C03001B61EB0C01DFF8A4E129
:103E40004FEA1154A4EB135C1EEA430F18BF9EEA1D
:103E5000445F00F0B08023EA6E03524221EA04512D
:103E6000C3EB6E0338BF5B1EDCF1200E25D322FAB4
:103E70000CFE10EB0E0043FA0CFE41EB0E01CCF1F0
:103E8000200E03FA0EFE10EB0E0051F10001CCF1F2
:103E9000200E29D412FA0EF201EB0451BDE81040B5
:103EA00058BF7047401C1CBFB2F1004F704700283C
:103EB0000CBF491C20F00100704712EB020E43EBCF
:103EC000030218BF4FF0010E4EEA4202ACF1200C83
:103ED000DCF11E0E54D943FA0CFE10EB0E0051F12A
:103EE000FF31CCF11E0ED5D50EF1010E12FA0EFEE9
:103EF000404141EB010101EB445C5FEA5C5C10D99D
:103F000010EBDE7001EB045138BFBEF1004FBDE88D
:103F1000104018BF704700280CBF491C20F001005A
:103F2000704730D24FEAD42C11F5001124F400640C
:103F30001BD0B1FA81F20B3AA41AA41ED2F12003CD
:103F4000914030FA03F31943904001EBCC71002CFF
:103F500001EB0451BDE81040A8BF704701F1C0411A
:103F60004FF0000001F000417047B0FA80F310FA02
:103F700003F100D110BDE41A173C4805C90AE4E773
:103F800001EB045110BD491001EB0451BDE8104094
:103F90004FEA300002E04FF0000170474A0008BFCE
:103FA0000042F8D0B2F5001F28BF704701F0004171
:103FB0004FF0000070479EEA445F07D011EA5E0FA1
:103FC000BDE8104004BF002100207047BDE810404C
:103FD00070B5FFF7CBFE00BF40DFF63E83F0004137
:103FE000104670470000E0FF90EA010F48BF81F0E3
:103FF000004100F15882421A3CBF801A89184FEAEA
:10400000D0524FF07F4C1CEA410FA2EBD15318BFA6
:104010009CEA026F00F03B804FF0004C4CEA00201D
:104020004CEA012121FA03FC10EB0C0C1ED202F128
:10403000FF325FEA1C2040EBC25038BF70471CF0D3
:104040007F0F4FEA400C18BFBCF17F4F38BF70475D
:10405000C3F12003994008BF20F00100BCF17F4F5D
:1040600038BF7047A0F1C04000F011BA4FEA3C00E1
:10407000000A40EBC25028BF1CF0FF0F4FEA400C73
:10408000E6D018BFBCF17F4F38BF7047EAE79CEA23
:10409000026F05D010EA5C0F08BF00F000407047C7
:1040A00010B500F0AEF900BF64FBBE3E4FF47F0CCC
:1040B0001CEAD0121EBF1CEAD11392EA0C0F93EA3D
:1040C0000C0F00F0858090EA010F48BF42F4807227
:1040D00040F4000C41F400002CF07F4120F07F40C0
:1040E00000B58142A2EB03020FF2081CACEB504E6C
:1040F000C0F100009EF800E04FEA4E0E00FB0EFCFF
:1041000038BF49004FEA2C1C02F5FA020CFB0EF3F3
:104110004FEACE1E4FEA112C4FEAC1210EEB635E2F
:1041200042EB22420EFB0CFC4FEA1C5300FB031136
:104130004FEA112C4FEA01310EFB0CFC4FEADC4C2C
:1041400000FB0C11C14228BF09184CEB03335DF88A
:1041500004EB10EB410143EBC250B2F57C0F38BFCA
:10416000704729D512F0F00F1CBF00F1C04000F0DD
:1041700000407047008182838485868788898B8C84
:104180008D8E8F919293959697999A9C9D9FA0A2C0
:10419000A3A5A7A8AAACAEB0B2B3B5B7B9BCBEC010
:1041A000C2C5C7C9CCCED1D4D7D9DCDFE2E6E9ECB1
:1041B000F0F3F7FAFE0000004FEA400C0CF1807CAF
:1041C000BCF17E4F28BF7047B0F1C04000F05FB92E
:1041D00090EA010F0CEAD11348BF42F480726245A5
:1041E00038BF634507D213F47F0F16D080EA010071
:1041F00000F00040704710B500F003F9097EFC3E66
:1042000000F005B880EA010000F00040704780EA45
:10421000010000F0004000F03AB912F47F0F04BF33
:104220000248704780EA010000F031B90000C07F09
:1042300041000B0ED3F19E0208D950F400034FEA5F
:10424000032323FA02F048BF4042704710B500F044
:10425000D8F800BF49922480002070476FF00042D8
:1042600082EA200070470000C10DD1F19E0206DBFA
:104270004FEA002343F0004323FA02F07047004264
:1042800007D54FEA4001B1F1FE4F02D24FF00000D6
:10429000704710B500F0B5F84992248000207047AF
:1042A0006FEA20007047000010F0004148BF404214
:1042B000B0FA80F310FA03F2C3F19D030BD051EA78
:1042C000C35101EB1220530638BF704700F10100C3
:1042D00008BF20F001007047B0FA80F310FA03F233
:1042E000C3F19D030AD0D90501EB1220530638BF54
:1042F000704700F1010008BF20F001007047000086
:104300004FF47F0C1CEAD0121EBF1CEAD11392EAB4
:104310000C0F93EA0C0F00F0478090EA010F48BFA2
:1043200042F480724FF0004C4CEA00204CEA01212C
:1043300002EB0302A0FB0113A2F50002002918BF43
:1043400043F001035B0028BF4FEA330342EB2242F4
:104350005FEA132C4CEBC2502EBFBCEB436FB2F59F
:104360007C0F70474FEA036CBCF1004F08BF20F090
:104370000100B2F57C0F38BF70470BD582F0FF0209
:1043800012F5803FC8BF704700F1C040D8BF00F0B1
:104390000040704700F5000C5FEA4C0C48BF7047C6
:1043A000B0F1C04000F073B890EA010F0CEAD113ED
:1043B00048BF42F48072624538BF634504D280EA48
:1043C000010000F00040704710B500F01AF800BF7F
:1043D0008900013E00F007B800F009B85FEA410C1F
:1043E0005FEA1C6C08D080EA010000F050B85FEA78
:1043F000400C5FEA1C6CF6D14FF00040A0F5800045
:1044000070470EF1020E2EF0030E5EF8044B2442AC
:1044100004D44FEA4102B2F17F4F11D84FEA400372
:10442000B3F17F4F0CD80ED14FEAD07CB2F17F4F61
:104430000CEB4C0C0CF1020C08BF4CEBD17C04E0F3
:104440004FF0080C01E04FEAD17C0CEB4C0324FA4E
:1044500003F404F00704B4F1040C06D20EEB840C50
:10446000BDE810404CF0010C6047DFE80CF0070895
:1044700002024FF00040A0F5800010BD0846420047
:1044800018BFD2F1807288BF00F0004010BDFF213C
:1044900041EAD050C005704790EA010F48BF81F053
:1044A00000413FF5A8AD421A04D882F00042A0EBCB
:1044B000020011444FEAD0524FF07F4C1CEA410FEA
:1044C000A2EBD15318BF9CEA026F4AD04FF0004CC8
:1044D0004CEA00204CEA012121FA03FCB0EB0C0C61
:1044E0000FD412F0FE0F36D05FEA4C001DD500123B
:1044F00040EBC25038BF70471CF03F0F18BF7047E9
:104500000BE0A2F101025FEA1C2040EBC25038BF71
:1045100070471CF07F0F18BF7047C3F1200399400C
:1045200014BF401E20F00100704780084FEA12239C
:1045300008BF7047B0FA80FCA2EB0C02CCF1280C4B
:1045400060FA0CF093EA122F04BF00EBC2507047E0
:104550004FEAC3707047130A5FEADC1008BF704768
:10456000F6E79CEA026F04D010EA5C0F08BF002057
:10457000704710B5FFF745FF40DFF63E81F0004081
:1045800070470000000000000000002F0000000045
:104590000700070000147F147F1400242A7F2A12CA
:1045A00000626408132300364955225000000503B9
:1045B000000000001C224100000041221C000014E9
:1045C000083E08140008083E0808000000A060002B
:1045D00000080808080800006060000000201008BB
:1045E0000402003E5149453E0000427F4000004227
:1045F00061514946002141454B31001814127F108A
:10460000002745454539003C4A49493000017109B8
:10461000050300364949493600064949291E00006C
:104620003636000000005636000000081422410013
:104630000014141414140000412214080002015143
:10464000090600324959513E007C1211127C007F4C
:1046500049494936003E41414122007F4141221CE7
:10466000007F49494941007F09090901003E41494C
:10467000497A007F0808087F0000417F4100002040
:1046800040413F01007F08142241007F40404040EC
:10469000007F020C027F007F0408107F003E414132
:1046A000413E007F09090906003E4151215E007F1D
:1046B000091929460046494949310001017F010194
:1046C000003F4040403F001F2040201F003F403837
:1046D000403F006314081463000708700807006176
:1046E0005149454300007F41410000552A552A5554
:1046F000000041417F0000040201020400404040EC
:104700004040000001020400002054545478007F0F
:104710004844443800384444442000384444487FE6
:1047200000385454541800087E0901020018A4A44B
:10473000A47C007F080404780000447D4000004011
:1047400080847D00007F102844000000417F4000ED
:10475000007C04180478007C080404780038444481
:10476000443800FC242424180018242418FC007C5D
:104770000804040800485454542000043F444020D6
:10478000003C4040207C001C2040201C003C40306D
:10479000403C004428102844001CA0A0A07C0044F9
:1047A00064544C44141414141414B1B1BEA9B5E7E4
:1047B000D7D3BFC6BCBCD6B0D2B5D1A7D4BAC1FA84
:1047C000C7F1D6C7C4DCBBFAC6F7C8CBD2A3BFD8E3
:1047D000C6F7BDD3CAD5B7A2CBCDB0B4BCFCA3BA83
:1047E0000020202020FE000000FE8040201000104D
:1047F0001008047F0000003F40404070000808E8B7
:1048000028282A2C282828E80808000020130A4213
:10481000427E02020A1320000000F090909090FE69
:1048200090909090F00000000F040404043F444472
:104830004444477000808282828282C2A2928A8629
:104840008280000000000040407F00000000000067
:1048500000404848F8444420C41800FE0000000806
:1048600004037F0204020202027F0101001010FE15
:104870001000909090FE909010000042427F014006
:1048800040231408142340400004FC2424FC0400AA
:10489000FC040404FC0000101F11097F08403302CF
:1048A000020213600010608000FE000000FE008025
:1048B000700000404043407F4040407F42414040C4
:1048C000007010929490929490989412107000043A
:1048D00004040444447E06050404040400FC046447
:1048E0009C001848484A4C484818007F0808074070
:1048F00022120E02023E42620020202020A07E20D2
:10490000E0242820A020004020100C2320103F4449
:10491000424140700000FC444444C24200FC044454
:10492000B40C00101F1010080F08007F0010100FAB
:104930000028A6643C64A420FC848484FC0000015C
:10494000007E2A2A2A2A2A2A2A7E00000010989409
:1049500092909830003E4848447400007F0A0A4A0A
:104960007F00003F44444271001090FE901000FC14
:10497000040404FC00000002017F0041300F00002D
:10498000003F407000809E9292929EC09E92B2D252
:104990009E8000047C4A4A49780078494A4A7C044F
:1049A000000000000000807E800000000000004049
:1049B0004020100C0300030C10204040004042CC6B
:1049C00000846C544CD444524E020040201F2042BC
:1049D0005A52525F52525A42001010FE100098482C
:1049E0002A0C082848980042427F01004042427E3B
:1049F0004242424000809E9292929EC09E92B2D2CB
:104A00009E8000047C4A4A49780078494A4A7C04DE
:104A1000001010FE10504858EA4C685848400042B8
:104A2000427F01424A2E13122A2642020000F80059
:104A300000FE004020DE1010F01000000702017F91
:104A400000402017081621400000302C20A0702EB6
:104A50002020202428200010084442412729112921
:104A600025434040008084980080929490F0909478
:104A700092800040201F2040504846414244584008
:104A8000001010FE1000B88888EA8C8888B80042B0
:104A9000427F01004044271808142340002050CED4
:104AA0004800C8B820A8FEA8F8200002023F5228FB
:104AB000102F204A7F4A4A480000000080800000F2
:104AC00000000000000000000000191900000000B4
:104AD00000000000000000000000000000000000D6
:104AE0000000000000000000F800000000000000CE
:104AF000333000000000100C06100C06000000000F
:104B0000000000000040C07840C0784000043F042E
:104B1000043F040400007088FC08300000001820E6
:104B2000FF211E0000F008F000E018000000211C2A
:104B3000031E211E0000F00888700000001E2123C3
:104B4000241927211010160E00000000000000009C
:104B50000000000000000000E01804020000000057
:104B6000071820400000020418E000000000402068
:104B70001807000000404080F08040400002020121
:104B80000F01020200000000F0000000000101011E
:104B90001F01010100000000000000000080B07053
:104BA0000000000000000000000000000000010103
:104BB0000101010101000000000000000000303090
:104BC0000000000000000000008060180400601871
:104BD000060100000000E010080810E000000F10BF
:104BE0002020100F00001010F8000000000020200E
:104BF0003F2020000000700808088870000030285E
:104C00002422213000003008888848300000182015
:104C10002020110E000000C02010F8000000070442
:104C200024243F240000F80888880808000019217F
:104C30002020110E0000E0108888180000000F11DD
:104C40002020110E0000380808C8380800000000B5
:104C50003F000000000070880808887000001C22D7
:104C60002121221C0000E010080810E000000031A3
:104C70002222110F00000000C0C000000000000050
:104C800030300000000000008000000000000080C4
:104C900060000000000000804020100800000102B9
:104CA00004081020004040404040404000040404FC
:104CB00004040404000008102040800000002010BC
:104CC0000804020100007048080808F00000000015
:104CD0003036010000C030C828E810E0000718276F
:104CE0002423140B000000C038E0000000203C2307
:104CF000020227382008F8888888700000203F20AA
:104D00002020110E00C030080808083800071820BD
:104D1000202010080008F808080810E000203F20B4
:104D20002020100F0008F88888E8081000203F2095
:104D3000202320180008F88888E8081000203F2069
:104D40000003000000C030080808380000071820E1
:104D500020221E020008F808000008F808203F2161
:104D60000101213F20000808F80808000000202069
:104D70003F2020000000000808F8080800C08080DC
:104D8000807F00000008F888C028180800203F2015
:104D9000012638200008F8080000000000203F200D
:104DA000202020300008F8F800F8F80800203F0024
:104DB0003F003F200008F830C00008F808203F20DE
:104DC0000007183F00E01008080810E0000F10204E
:104DD0002020100F0008F808080808F000203F21E4
:104DE0000101010000E01008080810E0000F18247D
:104DF0002438504F0008F8888888887000203F20A9
:104E000000030C30200070880808083800003820A3
:104E10002121221C00180808F808081800000020AA
:104E20003F2000000008F808000008F808001F20D4
:104E30002020201F000878880000C83808000007DC
:104E4000380E010000F80800F80008F800033C07DD
:104E500000073C0300081868808068180820302C80
:104E600003032C30200838C800C838080000002090
:104E70003F2000000010080808C838080020382625
:104E80002120201800000000FE02020200000000A5
:104E90007F40404000000C30C000000000000000D7
:104EA000010638C00000020202FE0000000040407F
:104EB000407F000000000004020202040000000025
:104EC0000000000000000000000000000080808062
:104ED000808080808000020204000000000000004A
:104EE0000000000000000080808080000000192485
:104EF0002222223F2008F8008080000000003F119D
:104F00002020110E000000008080800000000E11A3
:104F10002020201100000000808088F800000E1181
:104F20002020103F200000808080800000001F2291
:104F30002222221300008080F08888881800202018
:104F40003F202000000000808080808000006B9463
:104F5000949493600008F8008080800000203F2136
:104F60000000203F200080989800000000002020D2
:104F70003F20200000000000809898000000C080C2
:104F800080807F000008F8000080808000203F249F
:104F9000022D302000000808F8000000000020204A
:104FA0003F202000008080808080808000203F2083
:104FB000003F20003F8080008080800000203F2153
:104FC0000000203F200000808080800000001F2023
:104FD0002020201F00808000808000000080FFA132
:104FE0002020110E000000008080808000000E1143
:104FF0002020A0FF80808080008080800020203FD3
:105000002120000100000080808080800000332487
:105010002424241900008080E0808000000000002B
:105020001F202000008080000000808000001F20E2
:105030002020103F20808080000080808000010EB2
:10504000300806010080800080008080800F300CD6
:10505000030C300F00008080008080800000203131
:105060002E0E312000808080000080808080818E24
:105070007018060100008080808080800000213050
:105080002C2221300000000000807C020200000081
:1050900000003F404000000000FF00000000000052
:1050A00000FF0000000002027C8000000000404081
:1050B0003F0000000000060101020204040000009D
:1050C00000000000000000000000000000000000E0
:1050D00000000000000000000000000000000000D0
:1050E0000000000000000000000000000000003F81
:1050F0003F3F3F3FC0C0C0C0C000000000000000F4
:10510000000000000000000000000000000000009F
:10511000000000000000000000000000000000008F
:1051200000000000000000000000000000000080FF
:10513000C0E0E0F0F0F0F00000000000F0F0F0F06F
:10514000F0F0F0F0F0F0F0F0F0F0F0F0F0F0F0F05F
:10515000F0F0F0F0F0F0F0F0F0F0F0F007070707F3
:105160000700000000000000000000E0F0F0F00088
:105170000000000060E0E0C0000000000000C0E0AF
:10518000E0E0606060607070303000E0E0E0E020FF
:1051900060E0E0E040F0FEFFFFFFFFFFFFFFFF00E9
:1051A00000000000FFFFFFFFFFFFFFFFFF1F1F1FAB
:1051B0001F1F1F1F1F1F1F1F1F1F1F1F1F1F1F1FFF
:1051C000FFFFFFFFFEFEFEFEFE00000006060606D5
:1051D00006C6FEFFFF1F070606FEFEFE0606068643
:1051E000C66606000000FFFFFFFF3030F0F0F0F071
:1051F000303000FFFFFFFF4078FFFFFF80FFFFFF21
:10520000FFFFFFFFFFFFFF0000000000FFFFFFFFA9
:10521000FFFFFFFFFF000000000000000000000093
:105220000000000000000000FFFFFFFFFFFFFFFF86
:10523000FF0000000000C0F0FEFF3F0780C0C0601C
:1052400070FFFFFF0E070301000000000000FFFFDA
:10525000FFFF0000FFFFFFFF000000FFFFFFFF0058
:1052600000FFFFFFFFFFFFFFFFFFFFFFFFFFFF004C
:1052700000000000FFFFFFFFFFFFFFFFFF00000037
:10528000000000000000000000000000000000809E
:10529000FFFFFFFFFFFFFFFFFF000000040F0F07EE
:1052A000030000030101000000070F0F0E0C0C0C9F
:1052B0000C0C0C0000040707070706020303030396
:1052C000030300070F0F07030303030100FFFFFFA2
:1052D000FFFFFFFFFFFFFF0000000000FFFFFFFFD9
:1052E000FFFFFFFFFFFFFFFFFFFFFFFFFFFFFFFFCE
:1052F000FFFFFFFFFFFFFFFFFFFFFFFFFFFFFFFFBE
:10530000FF000000424242FEFEFFE7434341000629
:105310001E3E3C3000FFFFFFFF000000004040FF4A
:10532000FFFFFF4000080808080808FFFFFFFF080C
:1053300008080808087FFFFFFFFFFFFFFFFFFFC00F
:10534000C0C0C0C0C1C1C1C1C1C1C1C1C1C1C1C151
:10535000C1C1C1C1C1C1C1C1C1C1010101010101BD
:10536000FFFFFFFFFFFFFFFFFF000000FFFF00FF49
:10537000FFFF00FEFF0000030F1F1E1800FFFFFFCE
:10538000FF808000008080FFFFFFFF400000021AC6
:105390007AFAF2E38383C3F2FE7E3E0E0000070F2B
:1053A0001F3F3F7F7F7F7F7F7F7F7F7F7F7F7F7FED
:1053B0007F7F7F7F7F7F7F7F7F7F7F7F7F7F7F7FFD
:1053C0007F7F0000000000007F7F7F3F3F1F0F07AF
:1053D000000000007F7F007F7F7F003F7F00000391
:1053E00001010101017F7F7F7F0000000040607F9D
:1053F0007F7F3F000000406070787D3F1F1F3F7F30
:10540000787060400000000000000000000102030E
:10541000040607080900000000010203040400005C
:105420000800000000000000020001000010000061
:105430005054000800000020540000006C010008D7
:10544000A454000854000020AC0D0000880100089E
:10545000000000000000000000000000000000004C
:10546000000000000000000000000000000000003C
:1054700000000000000000000024F4000000000014
:10548000100000000100000000000000000000000B
:10549000000000000000000000000000000000000C
:0454A0000000000008
:0400000508000131BD
:00000001FF
